:100000000C94EB010C9432020C9432020C943202E8
:100010000C9432020C9432020C9432020C94320290
:100020000C9432020C9432020C94E5200C94B92109
:100030000C946C170C9432020C9432020C94320221
:100040000C9432020C9432020C9432020C94320260
:100050000C94DD070C94B7170C9432020C94320206
:100060000C9432020C9432020C9432020C94320240
:100070000C9432020C9432020C9432020C94320230
:100080000C9432020C9432020C9432020C94320220
:100090000C9432020C9432020C9432020C94320210
:1000A0000C9432020C9432020C94320229001E008D
:1000B0001F0020002100220023002400250026002C
:1000C00027002D002E002A004A002B0014001A00E1
:1000D0000800150017001C0018000C001200130087
:1000E0002F00300028004D000151040016000700C9
:1000F00009000A000B000D000E000F003300340051
:10010000000032004B00E1001D001B00060019003A
:10011000050011001000360037003800E50000002F
:1001200052004E00E000E300E200000064002C00FA
:10013000000000000000E600E40050000000510054
:100140004F00005C3A003B003C003D003E003F0099
:100150004000410042004300440045004C00BE5CAA
:10016000390001000100010001000100010001004F
:10017000010001000100010001000100BD5C01005F
:100180000100010001000100010001000100010067
:100190000100010001000000010001000100010058
:1001A0000100010001000100010001000100010047
:1001B0000100010000004B000100010001000100EE
:1001C000000001000100000000000000010001002B
:1001D0004A0000004E004D0000000000000000003A
:1001E00000000001010203040506080A0C0F1114A7
:1001F000181C2024292E33393F464C535B626A7108
:1002000079818A929AA2AAB2B9C1C8CFD5DCE1E7B6
:10021000EBF0F4F7FAFCFDFEFFFEFDFCFAF7F4F05C
:10022000EBE7E1DCD5CFC8C1B9B2AAA29A928A8124
:1002300079716A625B534C463F39332E2924201C66
:100240001814110F0C0A080605040302010100002E
:10025000000000000000000004033000000016034E
:100260004B0042004400360037002D004D004B008B
:1002700049004900000010034B00420044006600A2
:1002800061006E00730000000403090409023B00D2
:10029000020100A0FA090400000103010100092184
:1002A000110100012240000705810308000A09042A
:1002B0000100010300000009211101000122BC001E
:1002C0000705820320000A12011001000000080344
:1002D000A1130001000102030105010902A101852A
:1002E000020901A10005091901290515002501953B
:1002F0000575018102950175038101050109300928
:10030000311581257F9502750881060938158125EB
:100310007F950175088106050C0A38021581257F35
:10032000950175088106C0C005010980A1018503FA
:1003300019012AB700150126B70095017510810033
:10034000C0050C0901A101850419012AA0021501AB
:1003500026A002950175108100C005010906A101C2
:100360008505050719E029E71500250195087501A0
:1003700081020507190029EF1500250195F0750187
:10038000810205081901290595057501910295015C
:1003900075039101C005010906A101050719E029AE
:1003A000E715002501950875018102950175088101
:1003B000010507190029FF150026FF00950675089D
:1003C000810005081901290595057501910295011E
:1003D00075039101C00011241FBECFEFDAE0DEBF2C
:1003E000CDBF04B603FE27C08091A4029091A50260
:1003F000A091A602B091A7028730904BA740B04BC6
:10040000D1F41092A4021092A5021092A6021092AA
:10041000A70214BE84B7877F84BF0FB6F894A8954F
:1004200080916000886180936000109260000FBE30
:10043000E0E0F8E3099511E0A0E0B1E0EEE2F9E4D4
:1004400002C005900D92A639B107D9F722E0A6E9BE
:10045000B1E001C01D92A43AB207E1F70E94251E47
:100460000C9427240C94000081E0089581E0089505
:100470000C94360208950C943A021F93CF93DF93A5
:1004800000D000D00F92CDB7DEB749835A836B837B
:100490003091B10189819A8131111DC06623B9F073
:1004A0002223A9F00E945F14182F682F89819A8156
:1004B0000E940B1469817A81812F0F900F900F9009
:1004C0000F900F90DF91CF911F910C94F7020E9433
:1004D0003714182FEFCF0E945F1469817A81EDCF16
:1004E000FC01262F408151816281738184810C94AB
:1004F0003D02CF93DF93EC0160E00E947002BE01E9
:10050000DF91CF910C943B020E9401180E94A91523
:10051000811102C00E944F160E944C080C940305E2
:100520000C94060508950C94920281E008950C94B1
:100530009502CF93C82F0E9493028C2FCF910C94D9
:10054000970208950E94720F0E94A1022FEF84E388
:100550009CE0215080409040E1F700C000000C94E6
:10056000DB170F931F93CF93DF93EC0161E00E94A1
:1005700070028C01BE010E943802882359F1BE012D
:10058000C8010E943507882329F1BE01C8010E94D5
:10059000ED088823F9F0BE01C8010E943F098823B5
:1005A000C9F0BE01C8010E94620A882399F08A81BD
:1005B000882339F001158CE5180751F00E3D1C45D4
:1005C00079F0CE01DF91CF911F910F910C943402FD
:1005D0000E94A20280E0DF91CF911F910F910895B8
:1005E0000E944F16F7CF90E080E008950895972F6E
:1005F00070E02FE0929F600D711D1124FB019BE4C0
:10060000899FE00DF11D1124EE0FFF1FE455FF4FF0
:10061000859194910895FC01EE0FFF1FE852FE4F63
:10062000859194910895CF93DF930E94F7020E94E1
:100630002804EC01811520E5920708F042C08115DD
:1006400030E4930708F0BDC0883E910528F5803E50
:10065000910508F09DC0883A910588F4853A910586
:1006600008F08FC08130910509F492C0009709F419
:100670008FC0049708F08CC0D0E0C0E089C08F3BE9
:10068000910508F489C0805C9109C03CD105A0F3B4
:100690000E940B03EC017CC08115904250F4C115FF
:1006A00081E0D80708F074C0C03FD10528F3D065B9
:1006B0006FC0C11590E3D90708F079C0CE019F70D3
:1006C000E7CF811525E5920758F5811534E59307A5
:1006D00008F0A6C0811542E5940750F4C11581E5E4
:1006E000D80708F471C0DC2FCC27C16FD06A50C086
:1006F000982F969596959E0123703327C115D34563
:1007000008F07FC0C1E0D0E002C0CC0FDD1F2A9509
:10071000E2F720E2929FC0011124C82BD92B6FC0B1
:10072000C11589E5D807A8F4C11598E5D90708F0DF
:100730007CC0C11526E5D20708F09ECF8C2F0E9401
:10074000BF04C82FD0E0DC2FCC27CC27DF71D062CC
:100750001FC0C1153AE5D30708F46CC0CE0190560E
:100760008115904208F088CF8D2F8F710E94BF04B1
:1007700090E0982F882788279F719C012C2BE901F6
:10078000E6CFC55AD0E0CC5BDE4FC881D0E0D06464
:10079000CE01DF91CF910895C85AD0E0CC0FDD1F74
:1007A000CA5EDE4F0990D881C02DD464F1CFCE014E
:1007B0009927D3FF03C0EC01D86CEACFEC01D06CD1
:1007C000E7CFDF70D06AE4CFCE01E4E0969587955D
:1007D000EA95E1F783702C2F26952695237090E2F9
:1007E000299F90011124382B8C2F8370C1E0D0E019
:1007F00002C0CC0FDD1F8A95E2F7C22BD32BDC6839
:10080000C7CFC1E0D0E002C0CC0FDD1F2A95E2F7D0
:1008100030E2939FC0011124C82BD92BDA68B8CFDE
:10082000D82FCC27C46FD06AB3CFDC2FCC27C06FB2
:10083000D06AAECF8C2F8F700E94BF0434E0D69563
:10084000C7953A95E1F7CF709C2FEC01D069A0CF06
:1008500082389105B1F1B0F48133910509F475C086
:1008600048F48932910509F469C08A32910509F486
:1008700073C008958533910509F459C089339105F2
:1008800001F10895833E9105A9F138F4803E910568
:10089000F9F0823E910549F10895863E9105A9F14E
:1008A000873E9105C9F1843E910519F52091960284
:1008B00021FF1FC08091950284FD14C087EE90E057
:1008C0000895209195022370A1F080EE90E00895A4
:1008D0002091950220FD47C03091960230FF09C05B
:1008E00024FF44C090E080E004C02091950222FDE6
:1008F000F7CF08952091950222FD3BC030919602DA
:1009000030FDE3CF24FFF5CFEDCF2091950223FFFB
:10091000F0CF24FDE7CFD2CF2091950223FD2CC04C
:100920003091960231FFEECF84EE90E00895209151
:10093000950225FFDECF89E290E00895209195028F
:1009400025FFD7CF85E390E008952091950226FFFB
:10095000D0CF8AE290E008952091950226FFC9CF7A
:1009600081E390E0089589E390E0089583EE90E0BC
:10097000089582EE90E0089586EE90E008959091BB
:10098000950292FF06C0282F28712830F9F4877F3E
:10099000846093FF06C0282F28712831F1F4877EE8
:1009A00084612091960220FF06C0382F38713830BC
:1009B000D9F4877F816021FF06C0282F2871283154
:1009C000D1F4877E816194FD877E0895282F24715C
:1009D0002430F9F68B7F8860DCCF282F24712431F6
:1009E00001F78B7E8861DDCF382F3171313019F7F7
:1009F0008E7F8860E0CF282F2171213121F78E7EF4
:100A00008861E1CF08950C94020508950C940505C2
:100A1000E82FF0E0EE0FFF1FEA57FD4F8081918134
:100A20000895089580EA8A95F1F70895CF93DF93AA
:100A3000A6E5B1E04BE551E0C1E0D0E08D91E82FB3
:100A4000E295EF70F0E061A18F709E0101C0220F6E
:100A50008A95EAF7922F9095962391A382A1822BF3
:100A600082A34A175B0751F7A7E4B1E061E070E0A9
:100A70008D91E82FE295EF70F0E041A18F709B011E
:100A800001C0220F8A95EAF7922F9095942391A3A3
:100A900082A1822B82A381E0A635B80749F7109284
:100AA0007D0210927C0210928702109286021092B0
:100AB0007F0210927E021092890210928802109298
:100AC00081021092800210928B0210928A02109280
:100AD00083021092820210928D0210928C02109268
:100AE00085021092840210928F0210928E0285E08D
:100AF0000E940506DF91CF910C9484028F929F9201
:100B0000AF92BF92CF92DF92EF92FF920F931F931B
:100B1000CF93DF9386E5E82E81E0F82E0CE712E014
:100B2000912CAA24A394B12CF70181917F01C82FA5
:100B3000C295CF70D0E099A18F70650101C0CC0C37
:100B40008A95EAF7892F8C2989A38AA18C2C809415
:100B500088218AA30E941205E7E4F1E050E040E01A
:100B600030E020E06191A62FA295AF70B0E09096A2
:100B70008C9190E06F7002C0959587956A95E2F729
:100B800080FD3EC0C501042E02C0880F991F0A9443
:100B9000E2F7282B392B4F5F5F4F4F30510511F78C
:100BA00089A1882289A28AA1C82ACAA2F8018081C3
:100BB00091812817390739F13183208381E0982A00
:100BC0000E5F1F4FFBE5EF16F1E0FF0609F0ACCF1B
:100BD000292D45E066E872E08CE792E00E94060667
:100BE0000E949002892DDF91CF911F910F91FF906C
:100BF000EF90DF90CF90BF90AF909F908F9008952F
:100C000090E080E0C6CF80E0DACF0895FF920F93A6
:100C10001F93CF93DF93F82E092F162FD72FC42FB2
:100C2000222349F081E0809398010E949C179093C1
:100C3000970180939601809198018823A1F080917B
:100C40009601909197010E94A817069760F0EF2DEA
:100C5000F02FA12FBD2F90E080E0D0E08C179D07F2
:100C600044F010929801DF91CF911F910F91FF9066
:100C70000895219131912D933D930196EFCF80916D
:100C8000900286958695869508958091900281FDC3
:100C900007C08260809390020E94DB150C94C80705
:100CA00008958091900281FF07C08D7F809390020C
:100CB0000E94DB150C94D40708958091900281FD69
:100CC0000C9451060C944506809190028695817093
:100CD00008958091000108950E94A915811102C014
:100CE0000E944F160E94D71580939002803220F008
:100CF000877088618093900290919002892F817013
:100D000090FF04C0892F8695869586950C949E0742
:100D100080919002982F969596959695933040F4F1
:100D20009F5F990F990F990F8770892B809390027D
:100D3000809190028160809390020E94DB158091E7
:100D400090028695869586950C949E0780919002D8
:100D5000982F987F79F0885080939002887F91E057
:100D600009F490E08091900290FB80F980939002CA
:100D70000E94DB15809190028695869586950C944D
:100D80009E078091900280FD13C081608093900245
:100D9000813019F489E080939002809190020E9442
:100DA000DB15809190028695869586950C949E071A
:100DB00008958091900280FF08C08E7F80939002FA
:100DC0000E94DB1580E00C949E07089580919002AC
:100DD00080FD0C94D9060C94C10690919002892F45
:100DE0008695869586958F5F8F7197708430D8F43D
:100DF000880F880F880F892B809390028091900232
:100E0000887F91E009F490E08091900290FB80F956
:100E1000809390020E94DB158091900286958695C2
:100E200086950C949E0790939002E8CF843008F04A
:100E300083E0909190029770282F220F220F220FAB
:100E4000922B90939002987F21E009F420E09091FA
:100E5000900220FB90F9909390020C949E070E94C0
:100E60001607809190020C94DB15FC01DB011296B1
:100E70008C918823F9F0EB5BFC45E730F105D8F461
:100E8000E75DFB4D0C94C52383E00E942F0780E0B3
:100E9000089580E0FACF0E94A606F9CF0E94880646
:100EA000F6CF0E94E606F3CF0E94ED06F0CF0E9437
:100EB0005D06EDCF81E00895279A2F9808952F9829
:100EC0000895CF92DF92EF92FF928C3724E1920740
:100ED00050F469E070E00E947B23CB01FF90EF901B
:100EE000DF90CF900895B0E0A0E0BC01CD016A5042
:100EF000774D8F4F9F4F982F872F762F662725EF9F
:100F000038E241E050E00E94A32369017A01CA015E
:100F1000B9010E946B239B01AC01C701B6010E947D
:100F20006B23672F782F892F99276115710521E091
:100F30008207910591F66FEF7FEFCFCFCF93C82F48
:100F40008430F0F481111DC080918000877F8093F0
:100F500080000E945F072C2F30E0AFEFBFEF0E94B0
:100F6000CB2323E030E040E050E00E94A323C901FE
:100F70000E94610790938D0080938C00CF9108951B
:100F8000C3E080918000886080938000E4CF089562
:100F900010929A011092990110929B01EFE6F0E0F5
:100FA0008081816080830895EFE6F0E080818E7F0C
:100FB00080830E943F060C949E071F920F920FB6EB
:100FC0000F9211242F933F934F935F936F937F93CF
:100FD0008F939F93AF93BF93CF93EF93FF930E9411
:100FE00069064091990150919A014F5F5F4F94EFCC
:100FF000899F90011124CA01B9010E947B2390931B
:101000009A0180939901B901660F672F661F770BCC
:1010100071950E947B236F7780919B01823041F410
:10102000603451F480916F008E7F80936F0004C014
:10103000813011F46F37B1F3E62FF0E0E852FE4F44
:10104000C4910E943F06282F41E051E0C49FC00197
:10105000C59F900D112463E070E00E947B23269FC2
:10106000C001279F900D11240E94610790938D006D
:1010700080938C00FF91EF91CF91BF91AF919F91A1
:101080008F917F916F915F914F913F912F910F9031
:101090000FBE0F901F9018950E945C078AE0809306
:1010A000800089E1809381008FEF9FEF909387000C
:1010B000809386000E946C060E94640681110C9445
:1010C000C8070895AF92BF92CF92DF92EF92FF923E
:1010D0000F931F93CF93DF937C015B01C42FD22F1B
:1010E000FC0182818823F9F040939E010E949C17A5
:1010F00090939D0180939C0180E28C0F883008F0D2
:1011000061C0C77081E001C0880FCA95EAF7DF911E
:10111000CF911F910F91FF90EF90DF90CF90BF90F4
:10112000AF900C94F60C10919E01141340C0809166
:101130009C0190919D010E94A8176C01B701C50107
:101140000E94E811C816D90690F5C0E2CD0F1D1710
:10115000B9F080E2810F883040F4177081E001C05F
:10116000880F1A95EAF70E94FD0CC83048F481E018
:101170009D2F977001C0880F9A95EAF70E94F60C90
:10118000802F0E94E30CC830E8F4D77081E001C0E2
:10119000880FDA95EAF7DF91CF911F910F91FF90B9
:1011A000EF90DF90CF90BF90AF900C94FD0C80E259
:1011B0008C0F883038F4C77081E001C0880FCA9561
:1011C000EAF7E9CFDF91CF911F910F91FF90EF9058
:1011D000DF90CF90BF90AF9008950F939C01CB010B
:1011E000233F4CE5340759F1A8F4283DFCE53F07BF
:1011F00001F1293D4CE53407D1F1273D3C4591F4FF
:1012000006E221EE41EE67ED7CE50E94620880E097
:101210000F910895253FFCE53F07E9F0B0F0263F28
:101220003C45F9F0FC018281882339F110929E013E
:10123000EFCF07E225EE45EE68ED7CE5E6CF06E26E
:1012400021EE40EE63EF7CE5E0CF07E225EE44EED1
:1012500064EF7CE5DACF06E221EE42EE65EF7CE555
:10126000D4CF07E225EE46EE66EF7CE5CECF08E26E
:1012700021E045EE69ED7CE5C8CF81E0C9CFCF9391
:10128000DF93EC01FB018281882309F419C1C2308C
:10129000FCE5DF07C0F1C6319CE5D90730F09E01BF
:1012A0002A5F3C452930310570F50E94BC159093AA
:1012B000960280939502C031ECE5DE0709F4CFC0B9
:1012C00008F05BC0C8308CE5D80709F4B6C088F5D3
:1012D000C430ECE5DE0709F4A8C0C0F4C2308CE5E8
:1012E000D80709F49CC0809195028260C330DC4528
:1012F00009F498C080919502909196020E94CA15B7
:101300000E94720F80E0DF91CF9108958091950245
:101310008061C630ECE5DE0709F484C08091950257
:101320008860C730DC4508F47DC0809195028062FA
:1013300079C0CC308CE5D80709F489C070F480916D
:1013400095028C60CA30ECE5DE0709F46BC008F446
:1013500078C0809195028E7F65C0CE308CE5D8072D
:1013600009F479C0809195028B7FCF30DC4508F479
:1013700059C0809195028F7E55C0CB3FECE5DE07CA
:1013800009F457C030F5C3318CE5D80709F46FC0B4
:1013900078F4C131ECE5DE0709F465C0C231DC4503
:1013A00009F0A8CF0E94720F809195028F773AC002
:1013B000C5318CE5D80709F462C008F476C0809185
:1013C00096028160CA3FDC4509F094CF8093960273
:1013D00091CFCF3FFCE5DF0709F44DC088F4809141
:1013E00096028D7FCD3F9CE5D90781F380919602CF
:1013F0008E7FCE3FDC4550F3809196028360E6CF2E
:10140000C130FDE5DF0709F459C008F444C080E0AD
:10141000C230DD4509F06ECF0E9451166BCF80912E
:10142000950281608093950265CF809195028460DA
:10143000F9CF809196028260C9CF80919502806435
:10144000F1CF0E94720F809195028068EBCF80915E
:1014500095028D7FE7CF80919502877FE3CF8091C2
:1014600095028F7DDFCF809195028F7BDBCF8091BE
:101470009502837FD7CF809196028C7FA7CF8091F2
:10148000950282FB992790F921E0922790FB82F93F
:1014900090FB83F9C7CF80919602982F9095917019
:1014A0008E7F892B90FB81F991CF0E94720F9091D2
:1014B0009502892F97FB87F98058B4CF81E0ACCF94
:1014C00081E021CFCF93DF93EB0186319C4511F56D
:1014D0000E94F4149A81992399F08A7A91E009F490
:1014E00090E090939F01811109C089E20E94CF147E
:1014F0000E94401580E0DF91CF91089585E3F6CFFB
:1015000080919F01811104C089E20E94D614F0CF1E
:1015100085E3FBCF81E0EFCF9093A5018093A401F9
:101520000895E091A401F091A501309721F0019078
:10153000F081E02D099480E00895E091A401F091FC
:10154000A501309799F020911501222359F020919F
:10155000950227FF07C0DC012C9111962C9311975F
:1015600025E02C930280F381E02D09940895E09109
:10157000A401F091A501309739F022E0DC012C9311
:101580000480F581E02D099408952091A201309105
:10159000A3012817390771F09093A3018093A2014A
:1015A000E091A401F091A501309721F00680F78128
:1015B000E02D099408952091A0013091A1012817F0
:1015C000390771F09093A1018093A001E091A401EB
:1015D000F091A501309721F00084F185E02D099468
:1015E000089585B7806885BF85B7806885BF0895F1
:1015F000089508950C94F80A08950C94FC0A0E942A
:10160000F10A0E94F90A0C94FA0A81E008950C94F8
:10161000050B0E9493170E9416050E9415180E9440
:101620006C060C94FD0A7F928F929F92AF92BF92AC
:10163000CF92DF92EF92FF920F931F93CF93DF939E
:10164000CDB7DEB72A970FB6F894DEBF0FBECDBF79
:101650000E947E050E94070B882309F473C047EAA5
:10166000A42E41E0B42E10E000E0702E802F0E94E6
:1016700008056C01F501819091905F01881699062B
:1016800009F45AC08091490281FD0E94110580E051
:10169000EE24E394F12C8C249D2494012E213F21EF
:1016A000232B09F443C08E837F82CE20DF2081E08C
:1016B000CD2809F480E088870E949C178160782FEC
:1016C0009A8789874E815F8168858A850E94C70BCA
:1016D000000F111FF801E955FE4F80819181E82626
:1016E000F926F182E0820E94C7070E94C0190E9479
:1016F000910A9091A6018917B1F10E94910A8093F5
:10170000A6012A960FB6F894DEBF0FBECDBFDF91BB
:10171000CF911F910F91FF90EF90DF90CF90BF90EE
:10172000AF909F908F907F900C9499028F5FEE0CFA
:10173000FF1C8F3009F0B1CF0F5F1F4F053011052F
:1017400009F093CF8FEF89838A831B820E949C17B5
:101750008160782F9D838C8349815A816B818D8133
:101760000E94C70BC0CF2A960FB6F894DEBF0FBEFB
:10177000CDBFDF91CF911F910F91FF90EF90DF9040
:10178000CF90BF90AF909F908F907F900895CF9310
:10179000DF93CDB7DEB72B970FB6F894DEBF0FBE41
:1017A000CDBF4F83588769877A878B871E821D82BA
:1017B00085E0FE013796DE01119601900D928A9523
:1017C000E1F749815A816B817C818D819E812B96C5
:1017D0000FB6F894DEBF0FBECDBFDF91CF910C9452
:1017E000EB11FC01808191810C94A114CF93C82F3F
:1017F000882309F490C08238C1F40E94910A81FDC7
:101800008AC089E30E94CF140E9440152FEF81EE19
:1018100094E0215080409040E1F700C0000089E34F
:101820000E94D614CF910C9440158338A1F40E94E5
:10183000910A80FD70C083E50E94CF140E9440157C
:101840002FEF81EE94E0215080409040E1F700C0FE
:10185000000083E5E5CF8438A1F40E94910A82FD5F
:101860005AC087E40E94CF140E9440152FEF81EEEA
:1018700094E0215080409040E1F700C0000087E4F0
:10188000CFCF8CEF8C0F813AB8F48C2F0E94271C9D
:10189000811141C06C2F80910101909102010E9441
:1018A0006A16882329F08C2F0E94D6140E944015B6
:1018B0008C2F0E94CF14B6CF80E28C0F883048F472
:1018C000C77081E001C0880FCA95EAF70E94F7143B
:1018D000A9CFEBE5EC0FE33040F4F0E0E757FE4F23
:1018E000808190E0CF910C94C50AE8E5EC0FE731D8
:1018F00050F4F0E0EE0FFF1FE55AFE4F808191811A
:10190000CF910C94DB0AC03F30F08C2F0E94BA18A4
:10191000CF910C94A519CF910895882309F452C052
:10192000823871F40E94910A81FF4CC089E30E94C1
:10193000CF140E94401589E30E94D6140C944015E0
:10194000833859F40E94910A80FF3CC083E50E94CD
:10195000CF140E94401583E5EFCF843859F40E94DC
:10196000910A82FF2FC087E40E94CF140E94401585
:1019700087E4E2CF9CEF980F913AF0F290E2980F53
:10198000983050F4877091E001C0990F8A95EAF77A
:10199000892F0E94FD14D2CF9BE5980F933020F43D
:1019A00090E080E00C94C50A98E5980F973120F4F8
:1019B00090E080E00C94DB0A803F20F00E94221926
:1019C0000C94A5190895CF93C82F0E94F60BC93324
:1019D00049F42FEF87EE93E0215080409040E1F7EB
:1019E00000C000008C2FCF910C948D0C882321F027
:1019F0000E94F7140C9440150895882321F00E944A
:101A0000FD140C9440150895BF92CF92DF92EF928F
:101A1000FF920F931F93CF93DF936C01D62FC72FA5
:101A2000FC01058102950F70128111110E9414159D
:101A30000E94ED14E82E882391F01123D1F08C2F11
:101A4000807F803421F080E28D0F883090F082E03A
:101A50000E948B150E94ED1491E0E82EE926BC2E21
:101A6000B2949FE0B922EB2DF0E0E05DFB4D0C94C9
:101A7000C523E12CF4CF0C2F0F70C07F11F002951D
:101A8000007F1123A9F0002359F080E28D0F8830E8
:101A900010F0D11109C0802F0E94F7140E94401548
:101AA0008D2F0E94F60B14C0802F0E940715F6CFD1
:101AB0008D2F0E948D0C002359F080E28D0F88300D
:101AC00010F0D1112CC0802F0E94FD140E944015EF
:101AD0002B2D2850330B2430310520F40E94910A1D
:101AE0000E949902EE2009F49EC10E94E91480FD33
:101AF0009AC1F60112820E94E3140E946F13C6017C
:101B00000E94340F0E94E314DF91CF911F910F9137
:101B1000FF90EF90DF90CF90BF900C949013802FA8
:101B20000E940D15D3CFFC2FFF70FF2EC07FC03257
:101B300019F0F29480EFF822DD2369F0D13049F1F9
:101B4000112391F1002351F1F601858180FFA8CF87
:101B50008F70858323C0112381F0011106C00E947C
:101B600027158F290E94F60CB3CF0130C1F70E94D0
:101B700027158F290E942D15ABCF011106C00E9499
:101B800036158F2D0E94FD0CA3CF013009F4A0CF94
:101B9000F6CF112329F0063008F09ACF8F2DE2CF2F
:101BA000053008F095CFEDCF002359F3D93349F430
:101BB000FFEF27EE33E0F15020403040E1F700C066
:101BC00000008D2F0E948D0C83CF8C2F86958695DB
:101BD000837069F0813009F07BCF8D2F9C2F93703B
:101BE000111102C090E080E00E94DB0A71CF8D2FBE
:101BF0009C2F9370111102C090E080E00E94C50AF2
:101C000067CF8D2F112329F00E94BA180E94A519C1
:101C10005FCF0E942219FACF8C2F837009F041C048
:101C2000111156CF4D2F429546954770440F440FE2
:101C30000D2F0F7010E030E020E0042E04C0000FE4
:101C4000111F221F331F0A94D2F760E070E0CB010E
:101C5000D4FF0FC06FE070E080E090E004C0660F3A
:101C6000771F881F991F4A95D2F7609570958095C8
:101C70009095C695C695C370602B712B822B932BC4
:101C8000C23049F058F4C13019F00E94211320CF1E
:101C90000E940F131DCF0E9433131ACF0E940D1301
:101CA00017CF8695112311F08C2F8170882309F4AA
:101CB0000FCF4D2F429546954770440F440F0D2F7F
:101CC0000F7010E030E020E0042E04C0000F111F60
:101CD000221F331F0A94D2F760E070E0CB01D4FFDB
:101CE0000FC06FE070E080E090E004C0660F771FE7
:101CF000881F991F4A95D2F76095709580959095A9
:101D0000C695C695C370602B712B822B932BC23066
:101D100049F058F4C13019F00E94E613D9CE0E9460
:101D2000D413D6CE0E94F813D3CE0E944913D0CE3E
:101D3000CF70112329F08C2F0E946F138D2F12CF9B
:101D40008D2F0E94FD0C8C2F0E949013C1CED23F8C
:101D500089F160F4D03FC9F0D13F29F1112309F492
:101D600042C001119DCE8C2F8F7121C0D33F39F11C
:101D7000D43FA1F7112369F1CF718C2F0E946F130B
:101D800063E08C2F0E947615A3CE112341F005301D
:101D900008F09ECE8C2F8F710E94B31399CE06301F
:101DA00008F096CEF7CF8C2F8F71112369F20E9425
:101DB0006F138ECE8C2F8F711123C9F3C5CF1123D2
:101DC00029F08C2F8F710E945A1382CE0E945513D6
:101DD0007FCE81E00E948B15023008F479CE82E03C
:101DE0000E948B1575CE002359F0D93309F0E9CE46
:101DF0008FEF97EEE3E081509040E040E1F7DFCED7
:101E00008C2F8F71A1CF4C2F4F706D2FC6010E9468
:101E1000F3020E9485125CCE4C2F4F706D2FC601CD
:101E20000E94F60255CEDF91CF911F910F91FF9046
:101E3000EF90DF90CF90BF9008950F931F93CF93B3
:101E4000DF93EC01688179818A810E94AB148C0157
:101E50000E940A140E940C13B801CE01DF91CF91A9
:101E60001F910F910C94040DCF93DF93EC018B81A4
:101E70009C81892B29F08881998189238F3F59F48E
:101E8000DF91CF910895CE010E941D0FCE01DF9109
:101E9000CF910C947902CE010E94B1028111F3CF4F
:101EA0000E94ED14882361F38A81882349F382E03C
:101EB000DF91CF910C948B150E9414150E9424156C
:101EC0000E9440150E94CC1A0E94A51990E080E063
:101ED0000E94C50A90E080E00C94DB0A0E94DD14A9
:101EE0000C945C0F0E9404150C946E0FE92FE29580
:101EF000EF70E250EE3070F4F0E0E05CFB4D0C94DB
:101F0000C523803F19F020F4883E20F481E0089535
:101F1000843FE1F380E00895883EC0F3813FD1F72C
:101F2000F5CF93FB882780F908950E94A1140C94A3
:101F3000760FCF93DF9300D000D00F92CDB7DEB7EE
:101F40000F900F900F900F900F90DF91CF91089509
:101F5000CF93DF9300D000D000D0CDB7DEB7269668
:101F60000FB6F894DEBF0FBECDBFDF91CF910895BD
:101F70001F93CF93DF93C091B20116E08091B3011C
:101F80008C1304C0DF91CF911F910895D0E01C9F66
:101F9000F0011D9FF00D1124EC54FE4F4081518142
:101FA00062817381848195810E94A80F2196C770F8
:101FB000E5CF4091E4015091E5016091E601709117
:101FC000E7018091E8019091E9010C94A80F1F931B
:101FD000CF93DF938091E901807FA9F48091E6019E
:101FE000882389F08091B201C091B3016091E4012E
:101FF0007091E501A091E701B091E801D62FD723B8
:1020000016E0C81304C0DF91CF911F91089590E0AE
:10201000109711F0DF3F19F401968770F2CF189FE7
:102020009001199F300D1124F901EC54FE4F4181AC
:102030004713F2CF40814613EFCF42814111ECCFDD
:10204000438154814A1B5B0B483C510528F7809122
:10205000E9018F7080618093E901F901E754FE4F37
:1020600080818F708061808384EE91E00E94340FC4
:10207000DF91CF911F910C94B80FAF92BF92CF9286
:10208000DF92EF92FF920F931F93CF93DF93CDB721
:10209000DEB761970FB6F894DEBF0FBECDBF8C01DF
:1020A00085E0F801DE011D9601900D928A95E1F719
:1020B000F80140815181E28084EEC82E81E0D82E63
:1020C0006091E7017091E8016115710509F461C142
:1020D0009091E4012091E501892F82238F3F09F43B
:1020E00058C1A380B480F090E601F501E61BF70B20
:1020F000FF2009F4FCC08091E901382F307FE83CD3
:10210000F10508F0B2C0311179C0FE2C251323C0AF
:10211000941321C0E1101FC08F7080618093E9018A
:102120000E94D90FC6010E94340F8091E901F80185
:1021300085838F2D61960FB6F894DEBF0FBECDBF9D
:10214000DF91CF911F910F91FF90EF90DF90CF9093
:10215000BF90AF900895AB2829F0842F85238F3F3F
:1021600009F033C180E0F82FF170DF2E80FF3CC012
:102170008091B2012091B30136E0821315C04D87E2
:102180005E878D859E850E94A114292F22952F7030
:102190002230F0F0243018F59F70F1F0F8019581AD
:1021A000907FD1F4D12C1EC090E0389FF001399F70
:1021B000F00D1124EC54FE4F6181651306C060815F
:1021C000641303C062816E110FC001968770D5CF72
:1021D0009F7011F0882331F3805E883018F3C801B6
:1021E0000E94340FFD2CA5CFEE2009F4A2CF8091E0
:1021F000E90181608093E901F12C9BCF251306C092
:10220000941304C0F801EE2009F48DC04D875E8759
:102210008D859E850E94950F882319F1EE2009F186
:102220008091E901803270F02091E4013091E50164
:1022300038872F831986BB86AA868C87CE0107969E
:102240000E94340F86E0F801A4EEB1E001900D92F7
:102250008A95E1F70E94E70F0E94D90FFF24F394BB
:1022600068CFC8010E94340FF9CF311113C07A2D05
:10227000B98AA88A6E2D89890E94990F84EE91E00F
:102280000E94340F86E0F60111928A95E9F70E94C8
:10229000D90FB2CF25130FC094130DC0E1100BC09E
:1022A000F8018583C8010E94340F86E0F60111927F
:1022B0008A95E9F73ECF4D875E878D859E850E9482
:1022C000950F882371F2EE2061F28091E90180324E
:1022D00008F4B8CF2091E4013091E5013A832983D5
:1022E0001B82BD82AC828E83CE010196A9CFE83CD1
:1022F000F10508F041C0FE2CEE2009F4B2CF251301
:102300002AC0941328C08091E90180FD1BC0982F3A
:10231000907FC1F0F8018583903F31F0982F907F36
:10232000905F8F70892B8583C8010E94340F86E0EF
:10233000F801A4EEB1E001900D928A95E1F70E94B8
:10234000D90FF7CE86E0F801A4EEB1E001900D922E
:102350008A95E1F7EECE4D875E878D859E850E943A
:10236000950F81116FCF8091E90181608093E90120
:10237000C8010E94340FDDCE7A2DB98AA88A6E2D4D
:1023800089890E94990F86E0F60111928A95E9F7F2
:10239000D6CFEE2009F465CF4D875E878D859E856B
:1023A0000E94950FF82E882309F45BCF86E0F80190
:1023B000A4EEB1E001900D928A95E1F784EE91E0F0
:1023C0000E94F10B0E94E70FBACF81E08E25CBCEA1
:1023D00088EC90E008951F93CF93DF93CDB7DEB7DD
:1023E0002C970FB6F894DEBF0FBECDBF4F83588732
:1023F00069877A878B879C87CE0107960E943D105C
:10240000882369F08A859B85892B39F04F8158850F
:10241000842F85238F3F09F071C016E05FC086E0EE
:10242000FE013796DE01119601900D928A95E1F733
:102430008A859B85892B89F388859F8189238F3F96
:1024400061F32091B30130E0C901019687709927AB
:102450004091B2014817190671F40E94720F109250
:10246000B3011092B20186E0E4EEF1E0DF011D92CB
:102470008A95E9F7D2CF96E0929FD001939FB00D55
:102480001124AC54BE4FFE01319601900D929A95E5
:10249000E1F78093B3010E94B80FBFCF819FC001C5
:1024A00011248C549E4F0E943D108823E9F0E09146
:1024B000B2011E9FF0011124EC54FE4F4081518166
:1024C00062817381848195810E94A80F8091B201FD
:1024D00090E00196877099278093B2018091B201B4
:1024E0009091B3018913DACF2C960FB6F894DEBF22
:1024F0000FBECDBFDF91CF911F91089569857A8579
:102500008B859C850E94A80F88CFEF92FF920F9336
:102510001F93CF93DF938C01892B81F0F12CEE2454
:10252000E394E8012196F8018491843770F48430B3
:1025300008F05FC08130B1F08230A1F1DF91CF911E
:102540001F910F91FF90EF900895853709F44CC0CB
:1025500008F43DC09CE7980F903780F78F770E9472
:102560008D0C49C00E5F1F4FFE01849190E2980FC1
:10257000983060F48770FE2D01C0FF0F8A95EAF74E
:102580008F2F0E9417150E94401502C00E94F60B63
:102590008F2D815030F2EFE9FFE03197F1F700C065
:1025A0000000F7CF0E5F1F4FFE01849190E2980F5D
:1025B000983050F48770FE2D01C0FF0F8A95EAF71E
:1025C0008F2F0E941D15DFCF0E948D0CE1CF0E5F73
:1025D0001F4FFE01C491C150D8F28FE99FE00197CF
:1025E000F1F700C00000F7CF0E5F1F4FFE01F4901F
:1025F000CFCF0E94F60B8E01CBCF08950C94FD1225
:102600000E94FE12609320027093210280932202A6
:10261000909323020C945C0F08950C9400130F9375
:102620001F930091200210912102209122023091EB
:102630002302602B712B822B932B1F910F910C94F3
:1026400000130F931F9300912002109121022091FB
:1026500022023091230260237123822393231F914E
:102660000F910C9400130F931F930091200210916F
:1026700021022091220230912302602771278227B4
:1026800093271F910F910C9400130C94FD120C943E
:1026900045130E94471360931C0270931D028093A0
:1026A0001E0290931F020C945C0F60E070E0CB015F
:1026B0000C9449130F931F9341E050E060E070E0E9
:1026C0008A019B0104C0000F111F221F331F8A952E
:1026D000D2F7C901B8011F910F910C9449130F93C0
:1026E0001F9341E050E060E070E004C0440F551FCC
:1026F000661F771F8A95D2F780911C0290911D0268
:10270000A0911E02B0911F028A019B01082B192B78
:102710002A2B3B2BC901B8011F910F910C9449132F
:102720000F931F9341E050E060E070E004C0440F5D
:10273000551F661F771F8A95D2F7CB01BA016095A6
:1027400070958095909500911C0210911D0220912A
:102750001E0230911F0260237123822393231F9155
:102760000F910C9449130F931F9341E050E060E0E8
:1027700070E004C0440F551F661F771F8A95D2F77B
:1027800080911C0290911D02A0911E02B0911F0227
:102790008A019B01082719272A273B27C901B8016D
:1027A0001F910F910C9449130F931F9300911C02DA
:1027B00010911D0220911E0230911F02602B712B7F
:1027C000822B932B1F910F910C9449130F931F93FE
:1027D00000911C0210911D0220911E0230911F02D7
:1027E00060237123822393231F910F910C9449132B
:1027F0000F931F9300911C0210911D0220911E0245
:1028000030911F0260277127822793271F910F9114
:102810000C94491308952FE0929F800D1124982F56
:10282000977041E001C0440F9A95EAF78695869526
:10283000869595E0899FF0011124E651FE4F90E0C6
:1028400080E070E05191DF0111979B01082E02C0DA
:10285000369527950A94E2F72170219525272423A0
:1028600025272C9301968530910561F708952FE077
:10287000929F800D1124982F977086958695869546
:1028800025E0829FF0011124E651FE4F50E040E028
:1028900080E0219130E0092E02C0369527950A94F8
:1028A000E2F721703327042E01C0220F0A94EAF7C1
:1028B000822B4F5F5F4F4530510559F70895BF9206
:1028C000CF92DF92EF92FF920F931F93CF93DF93FC
:1028D0008C01C0901C02D0901D02E0901E02F0906E
:1028E0001F028091200290912102A0912202B091BA
:1028F0002302C82AD92AEA2AFB2ACFE1D0E0BC2E3B
:10290000D701C6010C2E04C0B695A795979587955B
:102910000A94D2F780FD0EC0219788F7B12C8B2D39
:10292000DF91CF911F910F91FF90EF90DF90CF90AB
:10293000BF900895B8018C2F0E941303019761F393
:10294000EECFCF93DF93EC010E945F14BE01DF91C5
:10295000CF910C9413031F93CF93DF93EB019091CE
:10296000B101992331F0CB01DF91CF911F910C94EC
:10297000A114882379F0CB010E945F14182F682FCF
:10298000CE010E940B14BE01812FDF91CF911F91C8
:102990000C941303CB010E943714182FF4CF682F27
:1029A00080910101909102010C94EA16682F8091A8
:1029B0000101909102010C94F51680910101909112
:1029C00002010C94001780912402859585958595C8
:1029D0000895809124028770089590912402977041
:1029E00081E009F480E00895809148020895909173
:1029F0004802892B8093480208958095909148025F
:102A00009823909348020895109248020895909157
:102A10004702892B80934702089580959091470241
:102A20009823909347020895109247020895909139
:102A30004602892B80934602089580959091460224
:102A4000982390934602089510924602089580912B
:102A50002502089508950C942A159091250298173F
:102A600021F0809325020C942B1508958091250266
:102A7000882329F01092250280E00C942B150895EC
:102A8000E0910101F0910201809148028083E09180
:102A90000101F0910201808190914702892B80838E
:102AA000E0910101F0910201808190914602892B11
:102AB000808390912502992381F0E0910101F091AA
:102AC00002018081892B8083809101019091020114
:102AD0000E94561681110E94361580910101909135
:102AE00002010C949D0A08950C94731598E0899F37
:102AF00090011124622B609324020E946F13809135
:102B000024028595859585950C9474151092240260
:102B100080E00C9474159091240280958923809311
:102B20002402282F277071F4282F082E000C330B55
:102B30009217130639F08595859585950E94901317
:102B40000C94861508956FEF7FEF90E080E00C9471
:102B5000112490E080E00E94ED2321E08C3E9E4F06
:102B600009F020E0822F089582E090E00C94E523A4
:102B700083E090E00C94E523CF9384E090E00E9402
:102B8000E523C82F81E290E00E94E523982F8C2F47
:102B9000CF910895CF93C92F682F84E090E00E94D1
:102BA000F3236C2F81E290E0CF910C94F32386E025
:102BB00090E00C94E523682F86E090E00C94F323DA
:102BC000AB01BC018FE090E00C940524AB01BC018B
:102BD00083E190E00C94052460E070E0CB010C945C
:102BE000E61560E070E0CB010E94E0150C94EC1556
:102BF0006CEE7EEF90E080E00E94112460E082E0C5
:102C000090E00E94F32360E083E090E00E94F323D1
:102C1000109220021092210210922202109223029E
:102C200060E084E090E00E94F32360E081E290E0C5
:102C30000E94F32360E085E090E00E94F32360E0CF
:102C400086E090E00E94F3236FEF87E090E00E941F
:102C5000F32340E050E0BA0188E090E00E940524B0
:102C600060E08DE090E00E94F32340E050E0BA0184
:102C700088E190E00E94052460E087E190E00E94F6
:102C8000F32340E050E0BA018CE190E00E9405247B
:102C900060E080E290E00E94F3230C94F1150C9424
:102CA000F815682F8EE090E00C94F323FC01329627
:102CB00080911501882321F0809195029EE187FF84
:102CC00096E080E0915008F4089521912223D1F3F9
:102CD0008F5FF8CF662301F1209115012223F1F0D7
:102CE0002091950227FF1AC0462F46954695469596
:102CF0004E3190F4677021E030E002C0220F331FA4
:102D00006A95E2F7840F911DFC01828190E02823EF
:102D1000392381E0232B69F480E00895FC01329689
:102D200008962191261721F0E817F907D1F7F4CF7B
:102D300081E008959C01FC0132969FEF80E0419173
:102D4000461751F09F3F19F4411101C0982F8F5F32
:102D50008630A9F79F3F09F40895290F311D97FD8B
:102D60003A95F90162830895FC0132960896219103
:102D7000261303C0DF0111971C92E817F907B9F772
:102D80000895E62FE695E695E695EE3168F4E80FAE
:102D9000F92FF11D677021E030E001C0220F6A9524
:102DA000EAF78281822B82830895E62FE695E695E5
:102DB000E695EE3170F4E80FF92FF11D677021E010
:102DC00030E001C0220F6A95EAF72095828128231E
:102DD0002283089520911501222329F02091950244
:102DE00027FD0C94C1160C949A16209115012223EC
:102DF00029F02091950227FD0C94D5160C94B41659
:102E0000FC01329680911501882351F08091950242
:102E100087FF06C08EE1DF011D928A95E9F70895CC
:102E200086E0F9CF089508950C9413170E941417A3
:102E300080919B02843061F110924A0288E190E017
:102E400020E40FB6F894A895809360000FBE2093FD
:102E5000600080E00E949E0780E00E9499020E942C
:102E6000141783B7817F846083BF83B7816083BF7A
:102E70007894889583B78E7F83BF0FB6F894A89512
:102E800080916000886180936000109260000FBEA6
:102E900008950895CF930E9412170E947E050E9404
:102EA0004917C0E08C2F0E940805892B31F4CF5FB1
:102EB000C530C1F780E0CF91089581E0FCCF08953F
:102EC0000C945F170E94720F0E946C060E94910A78
:102ED0000E9499020C9460171F921FB61F92112432
:102EE0008F939F93AF93BF9380914A02811113C038
:102EF0008091910290919202A0919302B0919402DC
:102F00004196A11DB11D8093910290939202A093CE
:102F10009302B0939402BF91AF919F918F911F90B4
:102F20001FBE1F90189582E084BD93E095BD9AEF77
:102F300097BD80936E0008952FB7F8948091910209
:102F400090919202A0919302B09194022FBF0895A4
:102F50009C014FB7F8948091910290919202A091B8
:102F60009302B09194024FBF821B930B0895789403
:102F70001F921FB61F9211248F939F93AF93BF93FD
:102F80008091910290919202A0919302B09194024B
:102F90000196A11DB11D8093910290939202A0937E
:102FA0009302B0939402BF91AF919F918F911F9024
:102FB0001FBE1F90189581E08093E00080E280930F
:102FC000D8001092C9008FE19EE40197F1F700C08C
:102FD000000087E090EBDC018093A4029093A502AF
:102FE000A093A602B093A70288E19CE00FB6F894E4
:102FF000A895809360000FBE90936000FFCF0C9463
:10300000A3150E947E058FE39CE90197F1F700C0AC
:1030100000000E947E0580E00E94080580FF04C039
:103020000E94FF170C94DB1708950E94A9158111C7
:1030300002C00E944F160E94B415809349020E945C
:10304000BC1590939602809395020E94B815682F44
:1030500070E090E080E00E940D1360911C0270917E
:103060001D0280911E0290911F020C9447138091C3
:10307000510280FF12C06091080185E0689FB00195
:103080001124759567957595679560387105A8F554
:1030900061157105A1F1862F089581FF09C0609126
:1030A000080185E0689FB001112475956795EDCF03
:1030B0006091080182FD0AC0809150028823D1F0FE
:1030C0009091070160910801891728F085E0689FB9
:1030D000B0011124DACF869FB001112485E0869FCC
:1030E0009001879F300D1124692F70E0C9010E9463
:1030F0008F23CBCF65E070E0CECF8FE7089581E0DE
:1031000008958091510280FF0CC06091040170E02D
:1031100075956795759567956115710549F1862FC8
:10312000089581FF06C06091040170E07595679570
:10313000F3CF6091040182FD0BC090914F0299235F
:10314000A1F06091030180910401961738F0682F77
:1031500070E06038710500F38FE70895899FC00122
:10316000112470E00E948F23F4CF61E070E0D7CF8C
:1031700081E00895803F31F40E9437188195809353
:1031800055020895813F19F40E943718F8CF823F05
:1031900031F40E9437188195809354020895833F3B
:1031A00019F40E943718F8CF893F29F40E9481183A
:1031B0008093560208958A3F21F40E9481188195D8
:1031C000F7CF8B3F31F40E9481188195809357028D
:1031D00008958C3F19F40E948118F8CF843F31F490
:1031E000809153028160809353020895853F21F4BA
:1031F000809153028260F7CF863F21F48091530281
:103200008460F1CF873F21F4809153028860EBCF37
:10321000883F21F4809153028061E5CF8D3F31F4E6
:103220008091510281608093510208958E3F21F474
:10323000809151028260F7CF8F3FB9F780915102A0
:103240008460F1CF90915402803F59F480915502EF
:1032500087FF0DC01092550291110BC010925002C1
:1032600008C0813F81F48091550218169CF3992380
:1032700081F08091560290915702892B09F064C029
:1032800010924F020895823F49F497FFF0CF1092B9
:103290005402809155028111ECCFE0CF833F19F4A5
:1032A0001916ACF3E4CF20915602893F29F4121687
:1032B000F4F610925602DBCF8A3F19F427FFD7CFDE
:1032C000F8CF209157028B3F29F427FFD0CF1092DF
:1032D0005702CDCF8C3F19F41216CCF3C8CF843FE0
:1032E00031F4809153028E7F80935302C0CF853F8B
:1032F00021F4809153028D7FF7CF863F21F4809196
:1033000053028B7FF1CF873F21F480915302877F57
:10331000EBCF883F21F4809153028F7EE5CF8D3F24
:1033200031F4809151028E7F80935102A0CF8E3F65
:1033300021F4809151028D7FF7CF8F3F09F097CF15
:10334000809151028B7FF0CF08950E949C179C01C1
:103350009091540280915502982B21F030934E02A7
:1033600020934D029091560280915702982B21F0A4
:1033700030934C0220934B0282E592E00C94B70A02
:10338000EF92FF920F931F93CF93DF9300D000D063
:1033900000D0CDB7DEB786E0E2E5F2E0DE011196BF
:1033A00001900D928A95E1F7E0905402F090550259
:1033B0000091560210915702109254021092550239
:1033C00010925602109257028E2D8F2991F0809103
:1033D0004D0290914E020E94A817AC0190915002AC
:1033E000992309F43FC0809109018417150608F458
:1033F00047C0802F812B91F080914B0290914C021D
:103400000E94A817AC0190914F02992309F477C04C
:10341000809105018417150608F47FC0809154023D
:1034200090915502892B90915602892B90915702C9
:10343000892B11F00E94A51986E0FE013196A2E5C4
:10344000B2E001900D928A95E1F726960FB6F894B6
:10345000DEBF0FBECDBFDF91CF911F910F91FF90C7
:10346000EF90089520910A018AE0289F900111248D
:103470002417350708F0BDCF9F5F9093500202C01C
:103480009F3FD1F7EE2059F00E9437189FEF1E148E
:103490000CF491E0899F802D112480935402FF2029
:1034A00059F00E9437189FEF1F140CF491E0899F88
:1034B000802D11248093550230915402332309F456
:1034C00098CF20915502222309F493CF45EB340382
:1034D000C0011124992359F09093540245EB240321
:1034E00090011124332339F03093550282CF81E0CB
:1034F00080935402F3CF81E0809355027ACF2091DC
:1035000006018AE0289F900111242417350708F04E
:1035100085CF9F5F90934F0202C09F3FD1F700235A
:1035200059F00E9481189FEF10160CF491E0899FCA
:10353000802D112480935602112359F00E94811886
:103540009FEF11160CF491E0899F802D1124809338
:10355000570230915602332309F460CF209157026D
:10356000222309F45BCF45EB3403C00111249923D6
:1035700059F09093560245EB240390011124332314
:1035800039F0309357024ACF81E080935602F3CF4F
:1035900081E08093570242CF86E0E2E5F2E0DF016E
:1035A0001D928A95E9F71092500210924F021092E4
:1035B00051020895833081F128F4813059F082302E
:1035C000D1F00895853009F449C0B8F1863009F486
:1035D00056C0089580910A01482F460F5527551F60
:1035E0004F3F510524F4680F60930A0108958FEF4F
:1035F00080930A01089580910901482F460F5527AD
:10360000551F4F3F510524F4680F60930901089539
:103610008FEF80930901089580910801482F460F8C
:103620005527551F4F3F510524F4680F609308013B
:1036300008958FEF80930801089580910701482F26
:10364000460F5527551F4F3F510524F4680F6093CF
:10365000070108958FEF8093070108958091040179
:10366000482F460F5527551F4F3F510524F4680F2B
:103670006093040108958FEF809304010895809171
:103680000301482F460F5527551F4F3F510524F47E
:10369000680F6093030108958FEF809303010895ED
:1036A000833011F128F4813049F0823091F008958F
:1036B000853081F120F18630C1F1089580910A01B1
:1036C000681720F4861B80930A01089510920A015E
:1036D000089580910901681720F4861B80930901E1
:1036E000089510920901089580910801681720F447
:1036F000861B809308010895109208010895809117
:103700000701681720F4861B809307010895109223
:103710000701089580910401681720F4861B8093A7
:10372000040108951092040108958091030168171F
:1037300020F4861B809303010895109203010895DD
:103740000F931F9341E050E060E070E08A019B011D
:1037500004C0000F111F221F331F8A95D2F7C90121
:10376000B8010E940D131F910F910C94720FEBEF93
:10377000E80FEF3308F05AC0F0E0E25BFB4D0C9429
:10378000C5230E944F1681E0089580914902807FF1
:103790008093490281E08093590208950E94A20219
:1037A000F2CF90914902892F8E7F90FF81608093A4
:1037B000490280FDE8CF817F80934902E4CF909158
:1037C0004902892F8D7F91FF82608093490281FF9A
:1037D000DACF809149028160EFCF90914902892F21
:1037E0008B7F92FF84608093490282FDF2CFCBCF22
:1037F00090914902892F877F93FF886080934902C7
:1038000083FDE7CFC0CF0E94720F90919502892F60
:1038100097FB87F9805880939502B5CF80E00E948E
:10382000A01BB1CF8953FBCF8D51F9CF80E0089514
:1038300080E008950C94181C8E518A3030F4E82FE3
:10384000F0E0E457FE4F8081089580E00895CF9323
:10385000C82F809159028130B9F0882331F082302D
:10386000A1F11092590280E00DC00E94F41482323E
:10387000D1F78C2F0E94181C81111BC08C2F0E9425
:10388000B71B8170CF9108950E94F414823289F39E
:103890008C2F0E941A1C81110AC0C43199F060F467
:1038A000CB3029F0C03169F782E08093590281E082
:1038B000E8CF81E090E0E5CFC93221F0C833B9F319
:1038C00080E0DFCF10925902FBCFC93219F188F4A2
:1038D000C43101F120F4C73081F181E0D3CF82EE11
:1038E0008C0F8630D0F78C2F0E941C1C80935802BE
:1038F000F4CFCE3401F140F46AE0CB3471F780911B
:1039000058020E94DA1AE9CFC13579F061E0C23578
:10391000B1F3E3CF80915802882319F01092580236
:10392000DCCF81E080935902ADCF61E080915802F5
:103930000E94501BD2CF6AE0F9CF8EE180930A013A
:1039400082E3809309018AE08093080184E18093F7
:10395000070188E08093040188E280930301BDCFD2
:1039600080917A020895CF93DF9300D00F92CDB764
:10397000DEB790919B02943019F589837B836A832B
:1039800082E08093E9008FEF9091E800815095FDEF
:1039900006C095ED9A95F1F700008111F5CF809161
:1039A000E80085FF0DC050E040E063E070E0CE012C
:1039B00001960E94DA1E8091E8008E778093E800DD
:1039C0000F900F900F90DF91CF910895BC0184E08C
:1039D0000C94B31CBC0183E00C94B31C9C0182E0EA
:1039E0008093E9009FEF8091E800915085FD06C02B
:1039F00085ED8A95F1F700009111F5CF8091E800EF
:103A000085FF0CC050E040E066E070E0C9010E9414
:103A1000DA1E8091E8008E778093E8000895CF93B6
:103A2000DF93EC01809115018823B1F1809195021B
:103A300087FF32C060E282E08093E9008FEF9091CF
:103A4000E800815095FD06C095ED9A95F1F70000CC
:103A50008111F5CF8091E80085FF1BC08091150191
:103A600070E050E040E0811104C050E040E068E0C8
:103A700070E0CE010E94DA1E8091E8008E7780937C
:103A8000E80080E2FE01AAE5B2E001900D928A957D
:103A9000E1F7DF91CF91089568E081E0CDCF80918B
:103AA0009A02811109C00E946A200E94C720809159
:103AB000E20084608093E200089510929A020895D3
:103AC000089508950C94621742E061EC81E00E9431
:103AD000E61F42E261EC82E00C94E61F80919D02B9
:103AE000833009F45FC030F48130C1F1823009F4D1
:103AF0009BC008958A3009F487C08B3009F46DC0EB
:103B0000893009F04EC080919C02813209F049C091
:103B10008091A0029091A102029708F042C080918A
:103B2000E800877F8093E8008091E80082FF35C03D
:103B30009091F3008091F200029729F48091F100B6
:103B40008B7F813021F48091F10080937A02809103
:103B5000E8008B778093E8000C941A2080919C02F7
:103B6000813AF9F48091E800877F8093E8008091A2
:103B7000A0029091A102892B61F460E28AE592E0B3
:103B800070E00E94291F8091E8008B778093E80005
:103B9000089560E090E080E0F3CF80919B02811176
:103BA000C3CF089580919C02813AD9F78091A002F9
:103BB0009091A102892BA9F78091E800877F8093DB
:103BC000E8008091E80080FFFCCF80911501809390
:103BD000F1008091E8008E77BDCF80919C02813208
:103BE00001F78091A0029091A102892BD1F68091DA
:103BF000E800877F8093E8000E941A2080919E024F
:103C0000809315010C94720F80919C02813249F6C9
:103C10008091E800877F8093E8000E941A208091BD
:103C20009F0280937B02089580919C02813A09F063
:103C3000B8CF8091E800877F8093E8008091E8000A
:103C400080FFFCCF80917B02C2CF84B7877F84BF87
:103C50000FB6F894A8958091600088618093600009
:103C6000109260000FBE80E890E00FB6F894809349
:103C70006100909361000FBE0E94FF0A0E946A20BB
:103C80000E94C7208091E20084608093E2007894D3
:103C90000E9450230E94090B8BE091E00E948C0A45
:103CA00080919B02853019F00E94130BF9CF0E947E
:103CB000161780919902882399F30E944A17882346
:103CC00079F30E94C41EECCF0C94661E292F332773
:103CD0002330310519F168F42130310509F44AC067
:103CE0002230310509F44BC090E080E030E020E064
:103CF00028C02132310579F122323105A9F780E45B
:103D000090E025E933E061157105D9F08CEB90E086
:103D100029ED32E061307105A1F0E6CF99278130BD
:103D2000910599F0009741F08230910589F0039751
:103D3000D9F6E8E5F2E002C0E8E8F2E0849190E02C
:103D40009F01FA01318320830895E6E7F2E0F6CF80
:103D5000EEE5F2E0F3CF89E090E02EE932E0611584
:103D6000710579F389E090E027EB32E0613071056D
:103D700041F3BACF82E190E027EC32E0E2CF8BE36F
:103D800090E02CE832E0DDCF80E189BD82E189BDA1
:103D900009B400FEFDCF8091D8008F7D8093D800BC
:103DA0008091E00082608093E0008091E00081FDDE
:103DB000FCCF0895AF92BF92CF92DF92FF920F9304
:103DC0001F93CF93DF936C01EB018A010E9439208E
:103DD000F82E811123C00115110539F0F8018081F9
:103DE0009181C81BD90BC80ED91EB12CA12C2097CC
:103DF000A9F08091E80085FD22C08091E8008E77CF
:103E00008093E80001151105A1F0F80180819181EE
:103E1000A80EB91EB182A08285E0F82E8F2DDF9109
:103E2000CF911F910F91FF90DF90CF90BF90AF90F7
:103E300008950E9439208823D1F2F82EEFCFF601A1
:103E400081916F018093F1002197FFEFAF1ABF0AB4
:103E5000CECFFC018091A2029091A3028617970712
:103E6000A0F06115710529F49091E8009E77909378
:103E7000E80090E06115710551F4911108C080913E
:103E8000E80082FF34C080E00895BC01F2CF809149
:103E90009B028823C1F18530C1F18091E80083FD48
:103EA00030C08091E80082FDEACF8091E80080FF79
:103EB000E1CF8091F3002091F200382F6115710558
:103EC00019F02830310558F091E02830310509F01B
:103ED00090E02091E8002E772093E800CBCF8191ED
:103EE0008093F100615071092F5F3F4FE7CF8091C0
:103EF0009B02882341F0853041F08091E80083FFE8
:103F0000BECF81E0089582E0089583E00895FC012A
:103F10008091A2029091A30286179707A0F06115E5
:103F2000710529F48091E8008E778093E80090E095
:103F30006115710551F4911108C08091E80082FF6C
:103F400035C080E00895BC01F2CF80919B028823A8
:103F5000C9F18530C9F18091E80083FD31C08091BD
:103F6000E80082FDEACF8091E80080FFE1CF8091F8
:103F7000F3002091F200382F6115710519F02830F7
:103F8000310558F091E02830310509F090E080913A
:103F9000E8008E778093E800CBCF84918093F10086
:103FA0003196615071092F5F3F4FE6CF80919B02A0
:103FB000882341F0853041F08091E80083FFBDCF38
:103FC00081E0089582E0089583E00895982F973066
:103FD00028F08F708093E90081E008959093E900C4
:103FE000242F762F50E0981731F07091EC0020913B
:103FF000ED005091F00021FD02C09F5FE8CF3091AD
:10400000EB003E7F3093EB003091ED003D7F30932D
:10401000ED003091EB0031603093EB007093EC00D9
:104020002093ED005093F0002091EE0027FDE5CFA6
:1040300080E0089580919C0287FF13C08091E80082
:1040400082FF06C08091E8008B778093E80004C06F
:1040500080919B028111F2CF089580919B02882369
:10406000D9F38091E80080FFF8CF8091E8008E7747
:10407000ECCF2091E4003091E50095E6A901209174
:10408000EC00822F817020FF06C08091E80080FF45
:1040900006C080E008952091E80022FD1AC08091BA
:1040A0009B02882389F0853089F08091EB0085FDA3
:1040B0000FC02091E4003091E50042175307F9F258
:1040C0009150E1F684E0089582E0089583E0089538
:1040D00081E008950E94D8200E94E020E0EEF0E008
:1040E000808181608083E8EDF0E080818F7780833C
:1040F00019BCA7EDB0E08C918E7F8C9380818F7E70
:10410000808310929A0208950F931F93CF93DF93A9
:104110000E94D8200E94E020C8EDD0E088818F77EF
:10412000888388818068888388818F7D888319BC93
:1041300010929B021092970210929902109298028C
:1041400000EE10E0F80180818B7F808388818160A0
:10415000888342E060E080E00E94E61FE1EEF0E04C
:1041600080818E7F8083E2EEF0E0808181608083B9
:10417000808188608083F80180818E7F8083888140
:1041800080618883DF91CF911F910F910895E8EDB1
:10419000F0E080818F7E8083E7EDF0E080818160B8
:1041A000808384E082BF81E080939A020C94842013
:1041B000E8EDF0E080818E7F80831092E200089528
:1041C0001092DA001092E10008951F920F920FB63C
:1041D0000F9211242F933F934F935F936F937F938D
:1041E0008F939F93AF93BF93EF93FF938091E100E1
:1041F00082FF0BC08091E20082FF07C08091E10046
:104200008B7F8093E1000E944F238091DA0080FF32
:1042100019C08091D80080FF15C08091DA008E7F90
:104220008093DA008091D90080FF96C080E189BD3B
:1042300082E189BD09B400FEFDCF81E080939B023D
:104240000E944F1D8091E10080FF19C08091E20023
:1042500080FF15C08091E2008E7F8093E200809104
:10426000E20080618093E2008091D80080628093B8
:10427000D80019BC85E080939B020E94611D80914B
:10428000E10084FF2BC08091E20084FF27C080E121
:1042900089BD82E189BD89B5982F917080FFFBCFE0
:1042A0008091D8008F7D8093D8008091E1008F7E2F
:1042B0008093E1008091E2008F7E8093E200809104
:1042C000E20081608093E20080919702882309F4E4
:1042D00049C084E080939B020E94621D8091E100AE
:1042E00083FF29C08091E20083FF25C08091E10017
:1042F000877F8093E10082E080939B021092970277
:104300008091E1008E7F8093E1008091E2008E7FBA
:104310008093E2008091E20080618093E20042E0BD
:1043200060E080E00E94E61F8091F000886080934A
:10433000F0000E94601DFF91EF91BF91AF919F919E
:104340008F917F916F915F914F913F912F910F903E
:104350000FBE0F901F90189519BC10929B020E94DF
:104360005D1D70CF8091E30087FD93E090939B02E9
:10437000B3CF1F920F920FB60F9211242F933F933A
:104380004F935F936F937F938F939F93AF93BF935D
:10439000CF93DF93EF93FF93D091E900DF7080918B
:1043A000EC00C82FC17080FDC0E81092E900809138
:1043B000F000877F8093F00078940E94FD21109296
:1043C000E9008091F00088608093F000CD2BCF70E1
:1043D000C093E900FF91EF91DF91CF91BF91AF9131
:1043E0009F918F917F916F915F914F913F912F910D
:1043F0000F900FBE0F901F9018951F93CF93DF93D0
:10440000CDB7DEB7AA970FB6F894DEBF0FBECDBF0B
:104410008CE992E02091F100FC012193CF01F2E0C0
:10442000843A9F07B9F70E946E1D8091E80083FFD0
:104430001EC180919C0290919D029A3008F017C194
:10444000E92FF0E0E357FB4D0C94C523803899F039
:10445000823809F00CC18091A0028F70873008F07B
:1044600006C18093E9008091EB0085FB882780F9E5
:104470001092E90006C080919802909199029111E2
:1044800082609091E800977F9093E8008093F1001C
:104490001092F1008091E8008E77E5C0882309F43E
:1044A000D3C0823009F0E3C080919E028111D6C052
:1044B0008091A0028F702FEF280F263008F0D7C010
:1044C0008093E9002091EB0020FFC8C0933031F4C5
:1044D0008091EB0080628093EB00C0C09091EB0074
:1044E00090619093EB0021E030E001C0220F8A95AB
:1044F000EAF72093EA001092EA008091EB008860CE
:10450000EACF8111B4C010919E021F778091E30021
:104510008078812B8093E3008091E800877F8093EF
:10452000E8000E941A208091E80080FFFCCF809173
:10453000E30080688093E30082E0111183E08093C0
:104540009B0295C08058823008F091C080919E02F5
:1045500090919F028C3D23E09207A1F583E08A832E
:104560008AE289834FB7F894DE01139620E03EE09B
:1045700051E2E32FF0E050935700E49120FF03C095
:10458000E295EF703F5FEF708E2F90E0EA30C0F061
:10459000C7968D939D932F5F243159F74FBF80911C
:1045A000E800877F8093E8006AE270E0CE01019620
:1045B0000E94291F8091E8008B778093E80057C004
:1045C000C096E7CF6091A0027091A102AE014F5F4B
:1045D0005F4F0E94641EBC01892B09F448C0909172
:1045E000E800977F9093E80089819A810E94871F55
:1045F000E1CF8038E1F58091E800877F8093E80083
:10460000809197028093F10045CF811130C0909145
:104610009E02923060F58091E800877F8093E800E9
:10462000909397020E941A2080919702882311F09C
:1046300084E005C08091E30087FDFACF81E080939C
:104640009B020E94641D13C080919E02813079F408
:1046500081E0933009F080E0809399021092E900A4
:104660008091E800877F8093E8000E941A20809163
:10467000E80083FF0AC08091E800877F8093E8000C
:104680008091EB0080628093EB00AA960FB6F894BD
:10469000DEBF0FBECDBFDF91CF911F91089508956A
:1046A000CF9380919B028823A1F0C091E900CF7045
:1046B0009091EC00892F817090FD80E8C82B1092BA
:1046C000E9008091E80083FD0E94FD21CF70C09336
:1046D000E900CF910895DB018F939F930E94DA2325
:1046E000BF91AF91A29F800D911DA39F900DB29F8E
:1046F000900D11240895AA1BBB1B51E107C0AA1FEE
:10470000BB1FA617B70710F0A61BB70B881F991F72
:104710005A95A9F780959095BC01CD01089597FB16
:10472000072E16F4009407D077FD09D00E947B2352
:1047300007FC05D03EF4909581959F4F08957095A4
:1047400061957F4F0895A1E21A2EAA1BBB1BFD01A4
:104750000DC0AA1FBB1FEE1FFF1FA217B307E40760
:10476000F50720F0A21BB30BE40BF50B661F771FB8
:10477000881F991F1A9469F7609570958095909598
:104780009B01AC01BD01CF010895EE0FFF1F059005
:10479000F491E02D0994A29FB001B39FC001A39FA3
:1047A000700D811D1124911DB29F700D811D11246A
:1047B000911D08950E94CB23A59F900DB49F900D4D
:1047C000A49F800D911D11240895F999FECF92BDEB
:1047D00081BDF89A992780B50895A8E1B0E042E03C
:1047E00050E00C941924262FF999FECF92BD81BD7B
:1047F000F89A019700B4021639F01FBA20BD0FB61F
:10480000F894FA9AF99A0FBE08950396272F0E94FA
:10481000F4230E94F323252F0E94F423242F0C94C9
:10482000F4230196272F0E94F4230C94F323DC0138
:10483000CB01FC01F999FECF06C0F2BDE1BDF89AAB
:10484000319600B40D9241505040B8F70895F89455
:10485000FFCF440749074B074E0751075407570737
:104860003B0D3B0D930D930DE50D010E680D680D8D
:104870000C0E980EA70EA70E030F680D680D0C0FF7
:10488000810F810F8A0F8A0F8C0F8A0F8A0F8A0F70
:10489000810F810F910F8A0F8A0F910FCE1BC51BBD
:1048A000D11BC31B161C161CC31B161C161CED1B90
:1048B000161CF81B031C161C161C161C161CC31BEE
:1048C000161C161CC31B161CDF1B161C161C141CE6
:1048D000141C141C141C141C141C141C141C141C58
:1048E0000E1C161CCE1BC11B161C161C161C161CDF
:1048F000161C161C161C161C161C161C0E1C161C30
:10490000161CC31B161C121C121C121C121C121C7F
:10491000121C121C121C121C0E1C26224E223723A3
:0E4920004E2237238122A2223723F9220523BB
:10492E000626022808641E140A321EB01C0F1DEE45
:10493E001CEA1CE61C01E200E900EA00B500B60024
:10494E00B700CD008301CC008A01920194012102AF
:10495E00230224022502260227022A02B300B400F3
:10496E006F007000818283F0F1F4F5F6F76766361A
:10497E003534979694953390919293E200E900EA3C
:10498E0000B500B600B700CD008301CC008A0192BD
:10499E000194012102230224022502260227022A63
:1049AE0002B300B4006F0070008182830102030421
:0649BE00050607080900D0
:00000001FF
